{"contracts/PokemonFactory.sol":{"PokemonFactory":{"abi":[{"anonymous":false,"inputs":[{"indexed":false,"internalType":"uint256","name":"id","type":"uint256"},{"indexed":false,"internalType":"string","name":"name","type":"string"},{"indexed":false,"internalType":"address","name":"sender","type":"address"}],"name":"eventNewPokemon","type":"event"},{"inputs":[{"internalType":"string","name":"_name","type":"string"},{"internalType":"uint256","name":"_id","type":"uint256"}],"name":"createPokemon","outputs":[],"stateMutability":"nonpayable","type":"function"},{"inputs":[],"name":"getAllPokemons","outputs":[{"components":[{"internalType":"uint256","name":"id","type":"uint256"},{"internalType":"string","name":"name","type":"string"}],"internalType":"struct PokemonFactory.Pokemon[]","name":"","type":"tuple[]"}],"stateMutability":"view","type":"function"},{"inputs":[],"name":"getResult","outputs":[{"internalType":"uint256","name":"product","type":"uint256"},{"internalType":"uint256","name":"sum","type":"uint256"}],"stateMutability":"pure","type":"function"},{"inputs":[{"internalType":"uint256","name":"","type":"uint256"}],"name":"pokemonToOwner","outputs":[{"internalType":"address","name":"","type":"address"}],"stateMutability":"view","type":"function"}],"evm":{"bytecode":{"linkReferences":{},"object":"608060405234801561001057600080fd5b50610d15806100206000396000f3fe608060405234801561001057600080fd5b506004361061004c5760003560e01c80630a3bd50b146100515780632f7467b31461006d5780635e9167901461009d578063de292789146100bb575b600080fd5b61006b60048036038101906100669190610554565b6100da565b005b610087600480360381019061008291906105b0565b610265565b604051610094919061061e565b60405180910390f35b6100a5610298565b6040516100b291906107c6565b60405180910390f35b6100c3610393565b6040516100d19291906107f7565b60405180910390f35b6000811161011d576040517f08c379a00000000000000000000000000000000000000000000000000000000081526004016101149061087d565b60405180910390fd5b7fae03d61b5220816daf808713a3f432bbd2c974b8abd5d214cbc1850bcff0badb818333604051610150939291906108d6565b60405180910390a1600060405180604001604052808381526020018481525090806001815401808255809150506001900390600052602060002090600202016000909190919091506000820151816000015560208201518160010190816101b79190610b20565b505050336001600083815260200190815260200160002060006101000a81548173ffffffffffffffffffffffffffffffffffffffff021916908373ffffffffffffffffffffffffffffffffffffffff160217905550600260003373ffffffffffffffffffffffffffffffffffffffff1673ffffffffffffffffffffffffffffffffffffffff168152602001908152602001600020600081548092919061025c90610c21565b91905055505050565b60016020528060005260406000206000915054906101000a900473ffffffffffffffffffffffffffffffffffffffff1681565b60606000805480602002602001604051908101604052809291908181526020016000905b8282101561038a5783829060005260206000209060020201604051806040016040529081600082015481526020016001820180546102f990610943565b80601f016020809104026020016040519081016040528092919081815260200182805461032590610943565b80156103725780601f1061034757610100808354040283529160200191610372565b820191906000526020600020905b81548152906001019060200180831161035557829003601f168201915b505050505081525050815260200190600101906102bc565b50505050905090565b60008060006001905060006002905080826103ae9190610c69565b935080826103bc9190610cab565b925050509091565b6000604051905090565b600080fd5b600080fd5b600080fd5b600080fd5b6000601f19601f8301169050919050565b7f4e487b7100000000000000000000000000000000000000000000000000000000600052604160045260246000fd5b61042b826103e2565b810181811067ffffffffffffffff8211171561044a576104496103f3565b5b80604052505050565b600061045d6103c4565b90506104698282610422565b919050565b600067ffffffffffffffff821115610489576104886103f3565b5b610492826103e2565b9050602081019050919050565b82818337600083830152505050565b60006104c16104bc8461046e565b610453565b9050828152602081018484840111156104dd576104dc6103dd565b5b6104e884828561049f565b509392505050565b600082601f830112610505576105046103d8565b5b81356105158482602086016104ae565b91505092915050565b6000819050919050565b6105318161051e565b811461053c57600080fd5b50565b60008135905061054e81610528565b92915050565b6000806040838503121561056b5761056a6103ce565b5b600083013567ffffffffffffffff811115610589576105886103d3565b5b610595858286016104f0565b92505060206105a68582860161053f565b9150509250929050565b6000602082840312156105c6576105c56103ce565b5b60006105d48482850161053f565b91505092915050565b600073ffffffffffffffffffffffffffffffffffffffff82169050919050565b6000610608826105dd565b9050919050565b610618816105fd565b82525050565b6000602082019050610633600083018461060f565b92915050565b600081519050919050565b600082825260208201905092915050565b6000819050602082019050919050565b61066e8161051e565b82525050565b600081519050919050565b600082825260208201905092915050565b60005b838110156106ae578082015181840152602081019050610693565b60008484015250505050565b60006106c582610674565b6106cf818561067f565b93506106df818560208601610690565b6106e8816103e2565b840191505092915050565b600060408301600083015161070b6000860182610665565b506020830151848203602086015261072382826106ba565b9150508091505092915050565b600061073c83836106f3565b905092915050565b6000602082019050919050565b600061075c82610639565b6107668185610644565b93508360208202850161077885610655565b8060005b858110156107b457848403895281516107958582610730565b94506107a083610744565b925060208a0199505060018101905061077c565b50829750879550505050505092915050565b600060208201905081810360008301526107e08184610751565b905092915050565b6107f18161051e565b82525050565b600060408201905061080c60008301856107e8565b61081960208301846107e8565b9392505050565b600082825260208201905092915050565b7f4964206d7573742062652067726561746572207468616e203000000000000000600082015250565b6000610867601983610820565b915061087282610831565b602082019050919050565b600060208201905081810360008301526108968161085a565b9050919050565b60006108a882610674565b6108b28185610820565b93506108c2818560208601610690565b6108cb816103e2565b840191505092915050565b60006060820190506108eb60008301866107e8565b81810360208301526108fd818561089d565b905061090c604083018461060f565b949350505050565b7f4e487b7100000000000000000000000000000000000000000000000000000000600052602260045260246000fd5b6000600282049050600182168061095b57607f821691505b60208210810361096e5761096d610914565b5b50919050565b60008190508160005260206000209050919050565b60006020601f8301049050919050565b600082821b905092915050565b6000600883026109d67fffffffffffffffffffffffffffffffffffffffffffffffffffffffffffffffff82610999565b6109e08683610999565b95508019841693508086168417925050509392505050565b6000819050919050565b6000610a1d610a18610a138461051e565b6109f8565b61051e565b9050919050565b6000819050919050565b610a3783610a02565b610a4b610a4382610a24565b8484546109a6565b825550505050565b600090565b610a60610a53565b610a6b818484610a2e565b505050565b5b81811015610a8f57610a84600082610a58565b600181019050610a71565b5050565b601f821115610ad457610aa581610974565b610aae84610989565b81016020851015610abd578190505b610ad1610ac985610989565b830182610a70565b50505b505050565b600082821c905092915050565b6000610af760001984600802610ad9565b1980831691505092915050565b6000610b108383610ae6565b9150826002028217905092915050565b610b2982610674565b67ffffffffffffffff811115610b4257610b416103f3565b5b610b4c8254610943565b610b57828285610a93565b600060209050601f831160018114610b8a5760008415610b78578287015190505b610b828582610b04565b865550610bea565b601f198416610b9886610974565b60005b82811015610bc057848901518255600182019150602085019450602081019050610b9b565b86831015610bdd5784890151610bd9601f891682610ae6565b8355505b6001600288020188555050505b505050505050565b7f4e487b7100000000000000000000000000000000000000000000000000000000600052601160045260246000fd5b6000610c2c8261051e565b91507fffffffffffffffffffffffffffffffffffffffffffffffffffffffffffffffff8203610c5e57610c5d610bf2565b5b600182019050919050565b6000610c748261051e565b9150610c7f8361051e565b9250828202610c8d8161051e565b91508282048414831517610ca457610ca3610bf2565b5b5092915050565b6000610cb68261051e565b9150610cc18361051e565b9250828201905080821115610cd957610cd8610bf2565b5b9291505056fea2646970667358221220d04740d1d5431c8870cb74df2f6b4efba429719d1f5748e9edc4e6bdf25c096564736f6c63430008120033","opcodes":"PUSH1 0x80 PUSH1 0x40 MSTORE CALLVALUE DUP1 ISZERO PUSH2 0x10 JUMPI PUSH1 0x0 DUP1 REVERT JUMPDEST POP PUSH2 0xD15 DUP1 PUSH2 0x20 PUSH1 0x0 CODECOPY PUSH1 0x0 RETURN INVALID PUSH1 0x80 PUSH1 0x40 MSTORE CALLVALUE DUP1 ISZERO PUSH2 0x10 JUMPI PUSH1 0x0 DUP1 REVERT JUMPDEST POP PUSH1 0x4 CALLDATASIZE LT PUSH2 0x4C JUMPI PUSH1 0x0 CALLDATALOAD PUSH1 0xE0 SHR DUP1 PUSH4 0xA3BD50B EQ PUSH2 0x51 JUMPI DUP1 PUSH4 0x2F7467B3 EQ PUSH2 0x6D JUMPI DUP1 PUSH4 0x5E916790 EQ PUSH2 0x9D JUMPI DUP1 PUSH4 0xDE292789 EQ PUSH2 0xBB JUMPI JUMPDEST PUSH1 0x0 DUP1 REVERT JUMPDEST PUSH2 0x6B PUSH1 0x4 DUP1 CALLDATASIZE SUB DUP2 ADD SWAP1 PUSH2 0x66 SWAP2 SWAP1 PUSH2 0x554 JUMP JUMPDEST PUSH2 0xDA JUMP JUMPDEST STOP JUMPDEST PUSH2 0x87 PUSH1 0x4 DUP1 CALLDATASIZE SUB DUP2 ADD SWAP1 PUSH2 0x82 SWAP2 SWAP1 PUSH2 0x5B0 JUMP JUMPDEST PUSH2 0x265 JUMP JUMPDEST PUSH1 0x40 MLOAD PUSH2 0x94 SWAP2 SWAP1 PUSH2 0x61E JUMP JUMPDEST PUSH1 0x40 MLOAD DUP1 SWAP2 SUB SWAP1 RETURN JUMPDEST PUSH2 0xA5 PUSH2 0x298 JUMP JUMPDEST PUSH1 0x40 MLOAD PUSH2 0xB2 SWAP2 SWAP1 PUSH2 0x7C6 JUMP JUMPDEST PUSH1 0x40 MLOAD DUP1 SWAP2 SUB SWAP1 RETURN JUMPDEST PUSH2 0xC3 PUSH2 0x393 JUMP JUMPDEST PUSH1 0x40 MLOAD PUSH2 0xD1 SWAP3 SWAP2 SWAP1 PUSH2 0x7F7 JUMP JUMPDEST PUSH1 0x40 MLOAD DUP1 SWAP2 SUB SWAP1 RETURN JUMPDEST PUSH1 0x0 DUP2 GT PUSH2 0x11D JUMPI PUSH1 0x40 MLOAD PUSH32 0x8C379A000000000000000000000000000000000000000000000000000000000 DUP2 MSTORE PUSH1 0x4 ADD PUSH2 0x114 SWAP1 PUSH2 0x87D JUMP JUMPDEST PUSH1 0x40 MLOAD DUP1 SWAP2 SUB SWAP1 REVERT JUMPDEST PUSH32 0xAE03D61B5220816DAF808713A3F432BBD2C974B8ABD5D214CBC1850BCFF0BADB DUP2 DUP4 CALLER PUSH1 0x40 MLOAD PUSH2 0x150 SWAP4 SWAP3 SWAP2 SWAP1 PUSH2 0x8D6 JUMP JUMPDEST PUSH1 0x40 MLOAD DUP1 SWAP2 SUB SWAP1 LOG1 PUSH1 0x0 PUSH1 0x40 MLOAD DUP1 PUSH1 0x40 ADD PUSH1 0x40 MSTORE DUP1 DUP4 DUP2 MSTORE PUSH1 0x20 ADD DUP5 DUP2 MSTORE POP SWAP1 DUP1 PUSH1 0x1 DUP2 SLOAD ADD DUP1 DUP3 SSTORE DUP1 SWAP2 POP POP PUSH1 0x1 SWAP1 SUB SWAP1 PUSH1 0x0 MSTORE PUSH1 0x20 PUSH1 0x0 KECCAK256 SWAP1 PUSH1 0x2 MUL ADD PUSH1 0x0 SWAP1 SWAP2 SWAP1 SWAP2 SWAP1 SWAP2 POP PUSH1 0x0 DUP3 ADD MLOAD DUP2 PUSH1 0x0 ADD SSTORE PUSH1 0x20 DUP3 ADD MLOAD DUP2 PUSH1 0x1 ADD SWAP1 DUP2 PUSH2 0x1B7 SWAP2 SWAP1 PUSH2 0xB20 JUMP JUMPDEST POP POP POP CALLER PUSH1 0x1 PUSH1 0x0 DUP4 DUP2 MSTORE PUSH1 0x20 ADD SWAP1 DUP2 MSTORE PUSH1 0x20 ADD PUSH1 0x0 KECCAK256 PUSH1 0x0 PUSH2 0x100 EXP DUP2 SLOAD DUP2 PUSH20 0xFFFFFFFFFFFFFFFFFFFFFFFFFFFFFFFFFFFFFFFF MUL NOT AND SWAP1 DUP4 PUSH20 0xFFFFFFFFFFFFFFFFFFFFFFFFFFFFFFFFFFFFFFFF AND MUL OR SWAP1 SSTORE POP PUSH1 0x2 PUSH1 0x0 CALLER PUSH20 0xFFFFFFFFFFFFFFFFFFFFFFFFFFFFFFFFFFFFFFFF AND PUSH20 0xFFFFFFFFFFFFFFFFFFFFFFFFFFFFFFFFFFFFFFFF AND DUP2 MSTORE PUSH1 0x20 ADD SWAP1 DUP2 MSTORE PUSH1 0x20 ADD PUSH1 0x0 KECCAK256 PUSH1 0x0 DUP2 SLOAD DUP1 SWAP3 SWAP2 SWAP1 PUSH2 0x25C SWAP1 PUSH2 0xC21 JUMP JUMPDEST SWAP2 SWAP1 POP SSTORE POP POP POP JUMP JUMPDEST PUSH1 0x1 PUSH1 0x20 MSTORE DUP1 PUSH1 0x0 MSTORE PUSH1 0x40 PUSH1 0x0 KECCAK256 PUSH1 0x0 SWAP2 POP SLOAD SWAP1 PUSH2 0x100 EXP SWAP1 DIV PUSH20 0xFFFFFFFFFFFFFFFFFFFFFFFFFFFFFFFFFFFFFFFF AND DUP2 JUMP JUMPDEST PUSH1 0x60 PUSH1 0x0 DUP1 SLOAD DUP1 PUSH1 0x20 MUL PUSH1 0x20 ADD PUSH1 0x40 MLOAD SWAP1 DUP2 ADD PUSH1 0x40 MSTORE DUP1 SWAP3 SWAP2 SWAP1 DUP2 DUP2 MSTORE PUSH1 0x20 ADD PUSH1 0x0 SWAP1 JUMPDEST DUP3 DUP3 LT ISZERO PUSH2 0x38A JUMPI DUP4 DUP3 SWAP1 PUSH1 0x0 MSTORE PUSH1 0x20 PUSH1 0x0 KECCAK256 SWAP1 PUSH1 0x2 MUL ADD PUSH1 0x40 MLOAD DUP1 PUSH1 0x40 ADD PUSH1 0x40 MSTORE SWAP1 DUP2 PUSH1 0x0 DUP3 ADD SLOAD DUP2 MSTORE PUSH1 0x20 ADD PUSH1 0x1 DUP3 ADD DUP1 SLOAD PUSH2 0x2F9 SWAP1 PUSH2 0x943 JUMP JUMPDEST DUP1 PUSH1 0x1F ADD PUSH1 0x20 DUP1 SWAP2 DIV MUL PUSH1 0x20 ADD PUSH1 0x40 MLOAD SWAP1 DUP2 ADD PUSH1 0x40 MSTORE DUP1 SWAP3 SWAP2 SWAP1 DUP2 DUP2 MSTORE PUSH1 0x20 ADD DUP3 DUP1 SLOAD PUSH2 0x325 SWAP1 PUSH2 0x943 JUMP JUMPDEST DUP1 ISZERO PUSH2 0x372 JUMPI DUP1 PUSH1 0x1F LT PUSH2 0x347 JUMPI PUSH2 0x100 DUP1 DUP4 SLOAD DIV MUL DUP4 MSTORE SWAP2 PUSH1 0x20 ADD SWAP2 PUSH2 0x372 JUMP JUMPDEST DUP3 ADD SWAP2 SWAP1 PUSH1 0x0 MSTORE PUSH1 0x20 PUSH1 0x0 KECCAK256 SWAP1 JUMPDEST DUP2 SLOAD DUP2 MSTORE SWAP1 PUSH1 0x1 ADD SWAP1 PUSH1 0x20 ADD DUP1 DUP4 GT PUSH2 0x355 JUMPI DUP3 SWAP1 SUB PUSH1 0x1F AND DUP3 ADD SWAP2 JUMPDEST POP POP POP POP POP DUP2 MSTORE POP POP DUP2 MSTORE PUSH1 0x20 ADD SWAP1 PUSH1 0x1 ADD SWAP1 PUSH2 0x2BC JUMP JUMPDEST POP POP POP POP SWAP1 POP SWAP1 JUMP JUMPDEST PUSH1 0x0 DUP1 PUSH1 0x0 PUSH1 0x1 SWAP1 POP PUSH1 0x0 PUSH1 0x2 SWAP1 POP DUP1 DUP3 PUSH2 0x3AE SWAP2 SWAP1 PUSH2 0xC69 JUMP JUMPDEST SWAP4 POP DUP1 DUP3 PUSH2 0x3BC SWAP2 SWAP1 PUSH2 0xCAB JUMP JUMPDEST SWAP3 POP POP POP SWAP1 SWAP2 JUMP JUMPDEST PUSH1 0x0 PUSH1 0x40 MLOAD SWAP1 POP SWAP1 JUMP JUMPDEST PUSH1 0x0 DUP1 REVERT JUMPDEST PUSH1 0x0 DUP1 REVERT JUMPDEST PUSH1 0x0 DUP1 REVERT JUMPDEST PUSH1 0x0 DUP1 REVERT JUMPDEST PUSH1 0x0 PUSH1 0x1F NOT PUSH1 0x1F DUP4 ADD AND SWAP1 POP SWAP2 SWAP1 POP JUMP JUMPDEST PUSH32 0x4E487B7100000000000000000000000000000000000000000000000000000000 PUSH1 0x0 MSTORE PUSH1 0x41 PUSH1 0x4 MSTORE PUSH1 0x24 PUSH1 0x0 REVERT JUMPDEST PUSH2 0x42B DUP3 PUSH2 0x3E2 JUMP JUMPDEST DUP2 ADD DUP2 DUP2 LT PUSH8 0xFFFFFFFFFFFFFFFF DUP3 GT OR ISZERO PUSH2 0x44A JUMPI PUSH2 0x449 PUSH2 0x3F3 JUMP JUMPDEST JUMPDEST DUP1 PUSH1 0x40 MSTORE POP POP POP JUMP JUMPDEST PUSH1 0x0 PUSH2 0x45D PUSH2 0x3C4 JUMP JUMPDEST SWAP1 POP PUSH2 0x469 DUP3 DUP3 PUSH2 0x422 JUMP JUMPDEST SWAP2 SWAP1 POP JUMP JUMPDEST PUSH1 0x0 PUSH8 0xFFFFFFFFFFFFFFFF DUP3 GT ISZERO PUSH2 0x489 JUMPI PUSH2 0x488 PUSH2 0x3F3 JUMP JUMPDEST JUMPDEST PUSH2 0x492 DUP3 PUSH2 0x3E2 JUMP JUMPDEST SWAP1 POP PUSH1 0x20 DUP2 ADD SWAP1 POP SWAP2 SWAP1 POP JUMP JUMPDEST DUP3 DUP2 DUP4 CALLDATACOPY PUSH1 0x0 DUP4 DUP4 ADD MSTORE POP POP POP JUMP JUMPDEST PUSH1 0x0 PUSH2 0x4C1 PUSH2 0x4BC DUP5 PUSH2 0x46E JUMP JUMPDEST PUSH2 0x453 JUMP JUMPDEST SWAP1 POP DUP3 DUP2 MSTORE PUSH1 0x20 DUP2 ADD DUP5 DUP5 DUP5 ADD GT ISZERO PUSH2 0x4DD JUMPI PUSH2 0x4DC PUSH2 0x3DD JUMP JUMPDEST JUMPDEST PUSH2 0x4E8 DUP5 DUP3 DUP6 PUSH2 0x49F JUMP JUMPDEST POP SWAP4 SWAP3 POP POP POP JUMP JUMPDEST PUSH1 0x0 DUP3 PUSH1 0x1F DUP4 ADD SLT PUSH2 0x505 JUMPI PUSH2 0x504 PUSH2 0x3D8 JUMP JUMPDEST JUMPDEST DUP2 CALLDATALOAD PUSH2 0x515 DUP5 DUP3 PUSH1 0x20 DUP7 ADD PUSH2 0x4AE JUMP JUMPDEST SWAP2 POP POP SWAP3 SWAP2 POP POP JUMP JUMPDEST PUSH1 0x0 DUP2 SWAP1 POP SWAP2 SWAP1 POP JUMP JUMPDEST PUSH2 0x531 DUP2 PUSH2 0x51E JUMP JUMPDEST DUP2 EQ PUSH2 0x53C JUMPI PUSH1 0x0 DUP1 REVERT JUMPDEST POP JUMP JUMPDEST PUSH1 0x0 DUP2 CALLDATALOAD SWAP1 POP PUSH2 0x54E DUP2 PUSH2 0x528 JUMP JUMPDEST SWAP3 SWAP2 POP POP JUMP JUMPDEST PUSH1 0x0 DUP1 PUSH1 0x40 DUP4 DUP6 SUB SLT ISZERO PUSH2 0x56B JUMPI PUSH2 0x56A PUSH2 0x3CE JUMP JUMPDEST JUMPDEST PUSH1 0x0 DUP4 ADD CALLDATALOAD PUSH8 0xFFFFFFFFFFFFFFFF DUP2 GT ISZERO PUSH2 0x589 JUMPI PUSH2 0x588 PUSH2 0x3D3 JUMP JUMPDEST JUMPDEST PUSH2 0x595 DUP6 DUP3 DUP7 ADD PUSH2 0x4F0 JUMP JUMPDEST SWAP3 POP POP PUSH1 0x20 PUSH2 0x5A6 DUP6 DUP3 DUP7 ADD PUSH2 0x53F JUMP JUMPDEST SWAP2 POP POP SWAP3 POP SWAP3 SWAP1 POP JUMP JUMPDEST PUSH1 0x0 PUSH1 0x20 DUP3 DUP5 SUB SLT ISZERO PUSH2 0x5C6 JUMPI PUSH2 0x5C5 PUSH2 0x3CE JUMP JUMPDEST JUMPDEST PUSH1 0x0 PUSH2 0x5D4 DUP5 DUP3 DUP6 ADD PUSH2 0x53F JUMP JUMPDEST SWAP2 POP POP SWAP3 SWAP2 POP POP JUMP JUMPDEST PUSH1 0x0 PUSH20 0xFFFFFFFFFFFFFFFFFFFFFFFFFFFFFFFFFFFFFFFF DUP3 AND SWAP1 POP SWAP2 SWAP1 POP JUMP JUMPDEST PUSH1 0x0 PUSH2 0x608 DUP3 PUSH2 0x5DD JUMP JUMPDEST SWAP1 POP SWAP2 SWAP1 POP JUMP JUMPDEST PUSH2 0x618 DUP2 PUSH2 0x5FD JUMP JUMPDEST DUP3 MSTORE POP POP JUMP JUMPDEST PUSH1 0x0 PUSH1 0x20 DUP3 ADD SWAP1 POP PUSH2 0x633 PUSH1 0x0 DUP4 ADD DUP5 PUSH2 0x60F JUMP JUMPDEST SWAP3 SWAP2 POP POP JUMP JUMPDEST PUSH1 0x0 DUP2 MLOAD SWAP1 POP SWAP2 SWAP1 POP JUMP JUMPDEST PUSH1 0x0 DUP3 DUP3 MSTORE PUSH1 0x20 DUP3 ADD SWAP1 POP SWAP3 SWAP2 POP POP JUMP JUMPDEST PUSH1 0x0 DUP2 SWAP1 POP PUSH1 0x20 DUP3 ADD SWAP1 POP SWAP2 SWAP1 POP JUMP JUMPDEST PUSH2 0x66E DUP2 PUSH2 0x51E JUMP JUMPDEST DUP3 MSTORE POP POP JUMP JUMPDEST PUSH1 0x0 DUP2 MLOAD SWAP1 POP SWAP2 SWAP1 POP JUMP JUMPDEST PUSH1 0x0 DUP3 DUP3 MSTORE PUSH1 0x20 DUP3 ADD SWAP1 POP SWAP3 SWAP2 POP POP JUMP JUMPDEST PUSH1 0x0 JUMPDEST DUP4 DUP2 LT ISZERO PUSH2 0x6AE JUMPI DUP1 DUP3 ADD MLOAD DUP2 DUP5 ADD MSTORE PUSH1 0x20 DUP2 ADD SWAP1 POP PUSH2 0x693 JUMP JUMPDEST PUSH1 0x0 DUP5 DUP5 ADD MSTORE POP POP POP POP JUMP JUMPDEST PUSH1 0x0 PUSH2 0x6C5 DUP3 PUSH2 0x674 JUMP JUMPDEST PUSH2 0x6CF DUP2 DUP6 PUSH2 0x67F JUMP JUMPDEST SWAP4 POP PUSH2 0x6DF DUP2 DUP6 PUSH1 0x20 DUP7 ADD PUSH2 0x690 JUMP JUMPDEST PUSH2 0x6E8 DUP2 PUSH2 0x3E2 JUMP JUMPDEST DUP5 ADD SWAP2 POP POP SWAP3 SWAP2 POP POP JUMP JUMPDEST PUSH1 0x0 PUSH1 0x40 DUP4 ADD PUSH1 0x0 DUP4 ADD MLOAD PUSH2 0x70B PUSH1 0x0 DUP7 ADD DUP3 PUSH2 0x665 JUMP JUMPDEST POP PUSH1 0x20 DUP4 ADD MLOAD DUP5 DUP3 SUB PUSH1 0x20 DUP7 ADD MSTORE PUSH2 0x723 DUP3 DUP3 PUSH2 0x6BA JUMP JUMPDEST SWAP2 POP POP DUP1 SWAP2 POP POP SWAP3 SWAP2 POP POP JUMP JUMPDEST PUSH1 0x0 PUSH2 0x73C DUP4 DUP4 PUSH2 0x6F3 JUMP JUMPDEST SWAP1 POP SWAP3 SWAP2 POP POP JUMP JUMPDEST PUSH1 0x0 PUSH1 0x20 DUP3 ADD SWAP1 POP SWAP2 SWAP1 POP JUMP JUMPDEST PUSH1 0x0 PUSH2 0x75C DUP3 PUSH2 0x639 JUMP JUMPDEST PUSH2 0x766 DUP2 DUP6 PUSH2 0x644 JUMP JUMPDEST SWAP4 POP DUP4 PUSH1 0x20 DUP3 MUL DUP6 ADD PUSH2 0x778 DUP6 PUSH2 0x655 JUMP JUMPDEST DUP1 PUSH1 0x0 JUMPDEST DUP6 DUP2 LT ISZERO PUSH2 0x7B4 JUMPI DUP5 DUP5 SUB DUP10 MSTORE DUP2 MLOAD PUSH2 0x795 DUP6 DUP3 PUSH2 0x730 JUMP JUMPDEST SWAP5 POP PUSH2 0x7A0 DUP4 PUSH2 0x744 JUMP JUMPDEST SWAP3 POP PUSH1 0x20 DUP11 ADD SWAP10 POP POP PUSH1 0x1 DUP2 ADD SWAP1 POP PUSH2 0x77C JUMP JUMPDEST POP DUP3 SWAP8 POP DUP8 SWAP6 POP POP POP POP POP POP SWAP3 SWAP2 POP POP JUMP JUMPDEST PUSH1 0x0 PUSH1 0x20 DUP3 ADD SWAP1 POP DUP2 DUP2 SUB PUSH1 0x0 DUP4 ADD MSTORE PUSH2 0x7E0 DUP2 DUP5 PUSH2 0x751 JUMP JUMPDEST SWAP1 POP SWAP3 SWAP2 POP POP JUMP JUMPDEST PUSH2 0x7F1 DUP2 PUSH2 0x51E JUMP JUMPDEST DUP3 MSTORE POP POP JUMP JUMPDEST PUSH1 0x0 PUSH1 0x40 DUP3 ADD SWAP1 POP PUSH2 0x80C PUSH1 0x0 DUP4 ADD DUP6 PUSH2 0x7E8 JUMP JUMPDEST PUSH2 0x819 PUSH1 0x20 DUP4 ADD DUP5 PUSH2 0x7E8 JUMP JUMPDEST SWAP4 SWAP3 POP POP POP JUMP JUMPDEST PUSH1 0x0 DUP3 DUP3 MSTORE PUSH1 0x20 DUP3 ADD SWAP1 POP SWAP3 SWAP2 POP POP JUMP JUMPDEST PUSH32 0x4964206D7573742062652067726561746572207468616E203000000000000000 PUSH1 0x0 DUP3 ADD MSTORE POP JUMP JUMPDEST PUSH1 0x0 PUSH2 0x867 PUSH1 0x19 DUP4 PUSH2 0x820 JUMP JUMPDEST SWAP2 POP PUSH2 0x872 DUP3 PUSH2 0x831 JUMP JUMPDEST PUSH1 0x20 DUP3 ADD SWAP1 POP SWAP2 SWAP1 POP JUMP JUMPDEST PUSH1 0x0 PUSH1 0x20 DUP3 ADD SWAP1 POP DUP2 DUP2 SUB PUSH1 0x0 DUP4 ADD MSTORE PUSH2 0x896 DUP2 PUSH2 0x85A JUMP JUMPDEST SWAP1 POP SWAP2 SWAP1 POP JUMP JUMPDEST PUSH1 0x0 PUSH2 0x8A8 DUP3 PUSH2 0x674 JUMP JUMPDEST PUSH2 0x8B2 DUP2 DUP6 PUSH2 0x820 JUMP JUMPDEST SWAP4 POP PUSH2 0x8C2 DUP2 DUP6 PUSH1 0x20 DUP7 ADD PUSH2 0x690 JUMP JUMPDEST PUSH2 0x8CB DUP2 PUSH2 0x3E2 JUMP JUMPDEST DUP5 ADD SWAP2 POP POP SWAP3 SWAP2 POP POP JUMP JUMPDEST PUSH1 0x0 PUSH1 0x60 DUP3 ADD SWAP1 POP PUSH2 0x8EB PUSH1 0x0 DUP4 ADD DUP7 PUSH2 0x7E8 JUMP JUMPDEST DUP2 DUP2 SUB PUSH1 0x20 DUP4 ADD MSTORE PUSH2 0x8FD DUP2 DUP6 PUSH2 0x89D JUMP JUMPDEST SWAP1 POP PUSH2 0x90C PUSH1 0x40 DUP4 ADD DUP5 PUSH2 0x60F JUMP JUMPDEST SWAP5 SWAP4 POP POP POP POP JUMP JUMPDEST PUSH32 0x4E487B7100000000000000000000000000000000000000000000000000000000 PUSH1 0x0 MSTORE PUSH1 0x22 PUSH1 0x4 MSTORE PUSH1 0x24 PUSH1 0x0 REVERT JUMPDEST PUSH1 0x0 PUSH1 0x2 DUP3 DIV SWAP1 POP PUSH1 0x1 DUP3 AND DUP1 PUSH2 0x95B JUMPI PUSH1 0x7F DUP3 AND SWAP2 POP JUMPDEST PUSH1 0x20 DUP3 LT DUP2 SUB PUSH2 0x96E JUMPI PUSH2 0x96D PUSH2 0x914 JUMP JUMPDEST JUMPDEST POP SWAP2 SWAP1 POP JUMP JUMPDEST PUSH1 0x0 DUP2 SWAP1 POP DUP2 PUSH1 0x0 MSTORE PUSH1 0x20 PUSH1 0x0 KECCAK256 SWAP1 POP SWAP2 SWAP1 POP JUMP JUMPDEST PUSH1 0x0 PUSH1 0x20 PUSH1 0x1F DUP4 ADD DIV SWAP1 POP SWAP2 SWAP1 POP JUMP JUMPDEST PUSH1 0x0 DUP3 DUP3 SHL SWAP1 POP SWAP3 SWAP2 POP POP JUMP JUMPDEST PUSH1 0x0 PUSH1 0x8 DUP4 MUL PUSH2 0x9D6 PUSH32 0xFFFFFFFFFFFFFFFFFFFFFFFFFFFFFFFFFFFFFFFFFFFFFFFFFFFFFFFFFFFFFFFF DUP3 PUSH2 0x999 JUMP JUMPDEST PUSH2 0x9E0 DUP7 DUP4 PUSH2 0x999 JUMP JUMPDEST SWAP6 POP DUP1 NOT DUP5 AND SWAP4 POP DUP1 DUP7 AND DUP5 OR SWAP3 POP POP POP SWAP4 SWAP3 POP POP POP JUMP JUMPDEST PUSH1 0x0 DUP2 SWAP1 POP SWAP2 SWAP1 POP JUMP JUMPDEST PUSH1 0x0 PUSH2 0xA1D PUSH2 0xA18 PUSH2 0xA13 DUP5 PUSH2 0x51E JUMP JUMPDEST PUSH2 0x9F8 JUMP JUMPDEST PUSH2 0x51E JUMP JUMPDEST SWAP1 POP SWAP2 SWAP1 POP JUMP JUMPDEST PUSH1 0x0 DUP2 SWAP1 POP SWAP2 SWAP1 POP JUMP JUMPDEST PUSH2 0xA37 DUP4 PUSH2 0xA02 JUMP JUMPDEST PUSH2 0xA4B PUSH2 0xA43 DUP3 PUSH2 0xA24 JUMP JUMPDEST DUP5 DUP5 SLOAD PUSH2 0x9A6 JUMP JUMPDEST DUP3 SSTORE POP POP POP POP JUMP JUMPDEST PUSH1 0x0 SWAP1 JUMP JUMPDEST PUSH2 0xA60 PUSH2 0xA53 JUMP JUMPDEST PUSH2 0xA6B DUP2 DUP5 DUP5 PUSH2 0xA2E JUMP JUMPDEST POP POP POP JUMP JUMPDEST JUMPDEST DUP2 DUP2 LT ISZERO PUSH2 0xA8F JUMPI PUSH2 0xA84 PUSH1 0x0 DUP3 PUSH2 0xA58 JUMP JUMPDEST PUSH1 0x1 DUP2 ADD SWAP1 POP PUSH2 0xA71 JUMP JUMPDEST POP POP JUMP JUMPDEST PUSH1 0x1F DUP3 GT ISZERO PUSH2 0xAD4 JUMPI PUSH2 0xAA5 DUP2 PUSH2 0x974 JUMP JUMPDEST PUSH2 0xAAE DUP5 PUSH2 0x989 JUMP JUMPDEST DUP2 ADD PUSH1 0x20 DUP6 LT ISZERO PUSH2 0xABD JUMPI DUP2 SWAP1 POP JUMPDEST PUSH2 0xAD1 PUSH2 0xAC9 DUP6 PUSH2 0x989 JUMP JUMPDEST DUP4 ADD DUP3 PUSH2 0xA70 JUMP JUMPDEST POP POP JUMPDEST POP POP POP JUMP JUMPDEST PUSH1 0x0 DUP3 DUP3 SHR SWAP1 POP SWAP3 SWAP2 POP POP JUMP JUMPDEST PUSH1 0x0 PUSH2 0xAF7 PUSH1 0x0 NOT DUP5 PUSH1 0x8 MUL PUSH2 0xAD9 JUMP JUMPDEST NOT DUP1 DUP4 AND SWAP2 POP POP SWAP3 SWAP2 POP POP JUMP JUMPDEST PUSH1 0x0 PUSH2 0xB10 DUP4 DUP4 PUSH2 0xAE6 JUMP JUMPDEST SWAP2 POP DUP3 PUSH1 0x2 MUL DUP3 OR SWAP1 POP SWAP3 SWAP2 POP POP JUMP JUMPDEST PUSH2 0xB29 DUP3 PUSH2 0x674 JUMP JUMPDEST PUSH8 0xFFFFFFFFFFFFFFFF DUP2 GT ISZERO PUSH2 0xB42 JUMPI PUSH2 0xB41 PUSH2 0x3F3 JUMP JUMPDEST JUMPDEST PUSH2 0xB4C DUP3 SLOAD PUSH2 0x943 JUMP JUMPDEST PUSH2 0xB57 DUP3 DUP3 DUP6 PUSH2 0xA93 JUMP JUMPDEST PUSH1 0x0 PUSH1 0x20 SWAP1 POP PUSH1 0x1F DUP4 GT PUSH1 0x1 DUP2 EQ PUSH2 0xB8A JUMPI PUSH1 0x0 DUP5 ISZERO PUSH2 0xB78 JUMPI DUP3 DUP8 ADD MLOAD SWAP1 POP JUMPDEST PUSH2 0xB82 DUP6 DUP3 PUSH2 0xB04 JUMP JUMPDEST DUP7 SSTORE POP PUSH2 0xBEA JUMP JUMPDEST PUSH1 0x1F NOT DUP5 AND PUSH2 0xB98 DUP7 PUSH2 0x974 JUMP JUMPDEST PUSH1 0x0 JUMPDEST DUP3 DUP2 LT ISZERO PUSH2 0xBC0 JUMPI DUP5 DUP10 ADD MLOAD DUP3 SSTORE PUSH1 0x1 DUP3 ADD SWAP2 POP PUSH1 0x20 DUP6 ADD SWAP5 POP PUSH1 0x20 DUP2 ADD SWAP1 POP PUSH2 0xB9B JUMP JUMPDEST DUP7 DUP4 LT ISZERO PUSH2 0xBDD JUMPI DUP5 DUP10 ADD MLOAD PUSH2 0xBD9 PUSH1 0x1F DUP10 AND DUP3 PUSH2 0xAE6 JUMP JUMPDEST DUP4 SSTORE POP JUMPDEST PUSH1 0x1 PUSH1 0x2 DUP9 MUL ADD DUP9 SSTORE POP POP POP JUMPDEST POP POP POP POP POP POP JUMP JUMPDEST PUSH32 0x4E487B7100000000000000000000000000000000000000000000000000000000 PUSH1 0x0 MSTORE PUSH1 0x11 PUSH1 0x4 MSTORE PUSH1 0x24 PUSH1 0x0 REVERT JUMPDEST PUSH1 0x0 PUSH2 0xC2C DUP3 PUSH2 0x51E JUMP JUMPDEST SWAP2 POP PUSH32 0xFFFFFFFFFFFFFFFFFFFFFFFFFFFFFFFFFFFFFFFFFFFFFFFFFFFFFFFFFFFFFFFF DUP3 SUB PUSH2 0xC5E JUMPI PUSH2 0xC5D PUSH2 0xBF2 JUMP JUMPDEST JUMPDEST PUSH1 0x1 DUP3 ADD SWAP1 POP SWAP2 SWAP1 POP JUMP JUMPDEST PUSH1 0x0 PUSH2 0xC74 DUP3 PUSH2 0x51E JUMP JUMPDEST SWAP2 POP PUSH2 0xC7F DUP4 PUSH2 0x51E JUMP JUMPDEST SWAP3 POP DUP3 DUP3 MUL PUSH2 0xC8D DUP2 PUSH2 0x51E JUMP JUMPDEST SWAP2 POP DUP3 DUP3 DIV DUP5 EQ DUP4 ISZERO OR PUSH2 0xCA4 JUMPI PUSH2 0xCA3 PUSH2 0xBF2 JUMP JUMPDEST JUMPDEST POP SWAP3 SWAP2 POP POP JUMP JUMPDEST PUSH1 0x0 PUSH2 0xCB6 DUP3 PUSH2 0x51E JUMP JUMPDEST SWAP2 POP PUSH2 0xCC1 DUP4 PUSH2 0x51E JUMP JUMPDEST SWAP3 POP DUP3 DUP3 ADD SWAP1 POP DUP1 DUP3 GT ISZERO PUSH2 0xCD9 JUMPI PUSH2 0xCD8 PUSH2 0xBF2 JUMP JUMPDEST JUMPDEST SWAP3 SWAP2 POP POP JUMP INVALID LOG2 PUSH5 0x6970667358 0x22 SLT KECCAK256 0xD0 SELFBALANCE BLOCKHASH 0xD1 0xD5 NUMBER SHR DUP9 PUSH17 0xCB74DF2F6B4EFBA429719D1F5748E9EDC4 0xE6 0xBD CALLCODE 0x5C MULMOD PUSH6 0x64736F6C6343 STOP ADDMOD SLT STOP CALLER "},"methodIdentifiers":{"createPokemon(string,uint256)":"0a3bd50b","getAllPokemons()":"5e916790","getResult()":"de292789","pokemonToOwner(uint256)":"2f7467b3"}}}}}