{
  "_format": "hh-sol-artifact-1",
  "contractName": "PokemonFactory",
  "sourceName": "contracts/PokemonFactory.sol",
  "abi": [
    {
      "anonymous": false,
      "inputs": [
        {
          "indexed": false,
          "internalType": "uint256",
          "name": "id",
          "type": "uint256"
        },
        {
          "indexed": false,
          "internalType": "string",
          "name": "name",
          "type": "string"
        },
        {
          "indexed": false,
          "internalType": "address",
          "name": "sender",
          "type": "address"
        }
      ],
      "name": "eventNewPokemon",
      "type": "event"
    },
    {
      "inputs": [
        {
          "internalType": "string",
          "name": "_name",
          "type": "string"
        },
        {
          "internalType": "uint256",
          "name": "_id",
          "type": "uint256"
        }
      ],
      "name": "createPokemon",
      "outputs": [],
      "stateMutability": "nonpayable",
      "type": "function"
    },
    {
      "inputs": [],
      "name": "getAllPokemons",
      "outputs": [
        {
          "components": [
            {
              "internalType": "uint256",
              "name": "id",
              "type": "uint256"
            },
            {
              "internalType": "string",
              "name": "name",
              "type": "string"
            }
          ],
          "internalType": "struct PokemonFactory.Pokemon[]",
          "name": "",
          "type": "tuple[]"
        }
      ],
      "stateMutability": "view",
      "type": "function"
    },
    {
      "inputs": [],
      "name": "getResult",
      "outputs": [
        {
          "internalType": "uint256",
          "name": "product",
          "type": "uint256"
        },
        {
          "internalType": "uint256",
          "name": "sum",
          "type": "uint256"
        }
      ],
      "stateMutability": "pure",
      "type": "function"
    },
    {
      "inputs": [
        {
          "internalType": "uint256",
          "name": "",
          "type": "uint256"
        }
      ],
      "name": "pokemonToOwner",
      "outputs": [
        {
          "internalType": "address",
          "name": "",
          "type": "address"
        }
      ],
      "stateMutability": "view",
      "type": "function"
    }
  ],
  "bytecode": "0x608060405234801561001057600080fd5b50610d15806100206000396000f3fe608060405234801561001057600080fd5b506004361061004c5760003560e01c80630a3bd50b146100515780632f7467b31461006d5780635e9167901461009d578063de292789146100bb575b600080fd5b61006b60048036038101906100669190610554565b6100da565b005b610087600480360381019061008291906105b0565b610265565b604051610094919061061e565b60405180910390f35b6100a5610298565b6040516100b291906107c6565b60405180910390f35b6100c3610393565b6040516100d19291906107f7565b60405180910390f35b6000811161011d576040517f08c379a00000000000000000000000000000000000000000000000000000000081526004016101149061087d565b60405180910390fd5b7fae03d61b5220816daf808713a3f432bbd2c974b8abd5d214cbc1850bcff0badb818333604051610150939291906108d6565b60405180910390a1600060405180604001604052808381526020018481525090806001815401808255809150506001900390600052602060002090600202016000909190919091506000820151816000015560208201518160010190816101b79190610b20565b505050336001600083815260200190815260200160002060006101000a81548173ffffffffffffffffffffffffffffffffffffffff021916908373ffffffffffffffffffffffffffffffffffffffff160217905550600260003373ffffffffffffffffffffffffffffffffffffffff1673ffffffffffffffffffffffffffffffffffffffff168152602001908152602001600020600081548092919061025c90610c21565b91905055505050565b60016020528060005260406000206000915054906101000a900473ffffffffffffffffffffffffffffffffffffffff1681565b60606000805480602002602001604051908101604052809291908181526020016000905b8282101561038a5783829060005260206000209060020201604051806040016040529081600082015481526020016001820180546102f990610943565b80601f016020809104026020016040519081016040528092919081815260200182805461032590610943565b80156103725780601f1061034757610100808354040283529160200191610372565b820191906000526020600020905b81548152906001019060200180831161035557829003601f168201915b505050505081525050815260200190600101906102bc565b50505050905090565b60008060006001905060006002905080826103ae9190610c69565b935080826103bc9190610cab565b925050509091565b6000604051905090565b600080fd5b600080fd5b600080fd5b600080fd5b6000601f19601f8301169050919050565b7f4e487b7100000000000000000000000000000000000000000000000000000000600052604160045260246000fd5b61042b826103e2565b810181811067ffffffffffffffff8211171561044a576104496103f3565b5b80604052505050565b600061045d6103c4565b90506104698282610422565b919050565b600067ffffffffffffffff821115610489576104886103f3565b5b610492826103e2565b9050602081019050919050565b82818337600083830152505050565b60006104c16104bc8461046e565b610453565b9050828152602081018484840111156104dd576104dc6103dd565b5b6104e884828561049f565b509392505050565b600082601f830112610505576105046103d8565b5b81356105158482602086016104ae565b91505092915050565b6000819050919050565b6105318161051e565b811461053c57600080fd5b50565b60008135905061054e81610528565b92915050565b6000806040838503121561056b5761056a6103ce565b5b600083013567ffffffffffffffff811115610589576105886103d3565b5b610595858286016104f0565b92505060206105a68582860161053f565b9150509250929050565b6000602082840312156105c6576105c56103ce565b5b60006105d48482850161053f565b91505092915050565b600073ffffffffffffffffffffffffffffffffffffffff82169050919050565b6000610608826105dd565b9050919050565b610618816105fd565b82525050565b6000602082019050610633600083018461060f565b92915050565b600081519050919050565b600082825260208201905092915050565b6000819050602082019050919050565b61066e8161051e565b82525050565b600081519050919050565b600082825260208201905092915050565b60005b838110156106ae578082015181840152602081019050610693565b60008484015250505050565b60006106c582610674565b6106cf818561067f565b93506106df818560208601610690565b6106e8816103e2565b840191505092915050565b600060408301600083015161070b6000860182610665565b506020830151848203602086015261072382826106ba565b9150508091505092915050565b600061073c83836106f3565b905092915050565b6000602082019050919050565b600061075c82610639565b6107668185610644565b93508360208202850161077885610655565b8060005b858110156107b457848403895281516107958582610730565b94506107a083610744565b925060208a0199505060018101905061077c565b50829750879550505050505092915050565b600060208201905081810360008301526107e08184610751565b905092915050565b6107f18161051e565b82525050565b600060408201905061080c60008301856107e8565b61081960208301846107e8565b9392505050565b600082825260208201905092915050565b7f4964206d7573742062652067726561746572207468616e203000000000000000600082015250565b6000610867601983610820565b915061087282610831565b602082019050919050565b600060208201905081810360008301526108968161085a565b9050919050565b60006108a882610674565b6108b28185610820565b93506108c2818560208601610690565b6108cb816103e2565b840191505092915050565b60006060820190506108eb60008301866107e8565b81810360208301526108fd818561089d565b905061090c604083018461060f565b949350505050565b7f4e487b7100000000000000000000000000000000000000000000000000000000600052602260045260246000fd5b6000600282049050600182168061095b57607f821691505b60208210810361096e5761096d610914565b5b50919050565b60008190508160005260206000209050919050565b60006020601f8301049050919050565b600082821b905092915050565b6000600883026109d67fffffffffffffffffffffffffffffffffffffffffffffffffffffffffffffffff82610999565b6109e08683610999565b95508019841693508086168417925050509392505050565b6000819050919050565b6000610a1d610a18610a138461051e565b6109f8565b61051e565b9050919050565b6000819050919050565b610a3783610a02565b610a4b610a4382610a24565b8484546109a6565b825550505050565b600090565b610a60610a53565b610a6b818484610a2e565b505050565b5b81811015610a8f57610a84600082610a58565b600181019050610a71565b5050565b601f821115610ad457610aa581610974565b610aae84610989565b81016020851015610abd578190505b610ad1610ac985610989565b830182610a70565b50505b505050565b600082821c905092915050565b6000610af760001984600802610ad9565b1980831691505092915050565b6000610b108383610ae6565b9150826002028217905092915050565b610b2982610674565b67ffffffffffffffff811115610b4257610b416103f3565b5b610b4c8254610943565b610b57828285610a93565b600060209050601f831160018114610b8a5760008415610b78578287015190505b610b828582610b04565b865550610bea565b601f198416610b9886610974565b60005b82811015610bc057848901518255600182019150602085019450602081019050610b9b565b86831015610bdd5784890151610bd9601f891682610ae6565b8355505b6001600288020188555050505b505050505050565b7f4e487b7100000000000000000000000000000000000000000000000000000000600052601160045260246000fd5b6000610c2c8261051e565b91507fffffffffffffffffffffffffffffffffffffffffffffffffffffffffffffffff8203610c5e57610c5d610bf2565b5b600182019050919050565b6000610c748261051e565b9150610c7f8361051e565b9250828202610c8d8161051e565b91508282048414831517610ca457610ca3610bf2565b5b5092915050565b6000610cb68261051e565b9150610cc18361051e565b9250828201905080821115610cd957610cd8610bf2565b5b9291505056fea2646970667358221220d04740d1d5431c8870cb74df2f6b4efba429719d1f5748e9edc4e6bdf25c096564736f6c63430008120033",
  "linkReferences": {},
  "deployedLinkReferences": {}
}